{
  "_format": "hh-sol-artifact-1",
  "contractName": "NFTMarket",
  "sourceName": "contracts/NFTMarket.sol",
  "abi": [
    {
      "inputs": [],
      "stateMutability": "nonpayable",
      "type": "constructor"
    },
    {
      "anonymous": false,
      "inputs": [
        {
          "indexed": true,
          "internalType": "uint256",
          "name": "itemId",
          "type": "uint256"
        },
        {
          "indexed": true,
          "internalType": "address",
          "name": "nftContract",
          "type": "address"
        },
        {
          "indexed": true,
          "internalType": "uint256",
          "name": "tokenId",
          "type": "uint256"
        },
        {
          "indexed": false,
          "internalType": "address",
          "name": "seller",
          "type": "address"
        },
        {
          "indexed": false,
          "internalType": "address",
          "name": "owner",
          "type": "address"
        },
        {
          "indexed": false,
          "internalType": "uint256",
          "name": "price",
          "type": "uint256"
        },
        {
          "indexed": false,
          "internalType": "bool",
          "name": "sold",
          "type": "bool"
        }
      ],
      "name": "MarketItemCreated",
      "type": "event"
    },
    {
      "inputs": [
        {
          "internalType": "address",
          "name": "nftContract",
          "type": "address"
        },
        {
          "internalType": "uint256",
          "name": "itemId",
          "type": "uint256"
        }
      ],
      "name": "createMarketSale",
      "outputs": [],
      "stateMutability": "payable",
      "type": "function"
    },
    {
      "inputs": [
        {
          "internalType": "address",
          "name": "nftContract",
          "type": "address"
        },
        {
          "internalType": "uint256",
          "name": "tokenId",
          "type": "uint256"
        },
        {
          "internalType": "uint256",
          "name": "price",
          "type": "uint256"
        }
      ],
      "name": "createNFT",
      "outputs": [],
      "stateMutability": "payable",
      "type": "function"
    },
    {
      "inputs": [],
      "name": "fetchCreatedNFTs",
      "outputs": [
        {
          "components": [
            {
              "internalType": "uint256",
              "name": "itemId",
              "type": "uint256"
            },
            {
              "internalType": "address",
              "name": "nftContract",
              "type": "address"
            },
            {
              "internalType": "uint256",
              "name": "tokenId",
              "type": "uint256"
            },
            {
              "internalType": "address payable",
              "name": "seller",
              "type": "address"
            },
            {
              "internalType": "address payable",
              "name": "owner",
              "type": "address"
            },
            {
              "internalType": "uint256",
              "name": "price",
              "type": "uint256"
            },
            {
              "internalType": "bool",
              "name": "sold",
              "type": "bool"
            }
          ],
          "internalType": "struct NFTMarket.MarketItem[]",
          "name": "",
          "type": "tuple[]"
        }
      ],
      "stateMutability": "view",
      "type": "function"
    },
    {
      "inputs": [
        {
          "internalType": "uint256",
          "name": "itemId",
          "type": "uint256"
        }
      ],
      "name": "fetchNFT",
      "outputs": [
        {
          "components": [
            {
              "internalType": "uint256",
              "name": "itemId",
              "type": "uint256"
            },
            {
              "internalType": "address",
              "name": "nftContract",
              "type": "address"
            },
            {
              "internalType": "uint256",
              "name": "tokenId",
              "type": "uint256"
            },
            {
              "internalType": "address payable",
              "name": "seller",
              "type": "address"
            },
            {
              "internalType": "address payable",
              "name": "owner",
              "type": "address"
            },
            {
              "internalType": "uint256",
              "name": "price",
              "type": "uint256"
            },
            {
              "internalType": "bool",
              "name": "sold",
              "type": "bool"
            }
          ],
          "internalType": "struct NFTMarket.MarketItem",
          "name": "",
          "type": "tuple"
        }
      ],
      "stateMutability": "view",
      "type": "function"
    },
    {
      "inputs": [],
      "name": "fetchNFTs",
      "outputs": [
        {
          "components": [
            {
              "internalType": "uint256",
              "name": "itemId",
              "type": "uint256"
            },
            {
              "internalType": "address",
              "name": "nftContract",
              "type": "address"
            },
            {
              "internalType": "uint256",
              "name": "tokenId",
              "type": "uint256"
            },
            {
              "internalType": "address payable",
              "name": "seller",
              "type": "address"
            },
            {
              "internalType": "address payable",
              "name": "owner",
              "type": "address"
            },
            {
              "internalType": "uint256",
              "name": "price",
              "type": "uint256"
            },
            {
              "internalType": "bool",
              "name": "sold",
              "type": "bool"
            }
          ],
          "internalType": "struct NFTMarket.MarketItem[]",
          "name": "",
          "type": "tuple[]"
        }
      ],
      "stateMutability": "view",
      "type": "function"
    },
    {
      "inputs": [],
      "name": "fetchOwnedNFTs",
      "outputs": [
        {
          "components": [
            {
              "internalType": "uint256",
              "name": "itemId",
              "type": "uint256"
            },
            {
              "internalType": "address",
              "name": "nftContract",
              "type": "address"
            },
            {
              "internalType": "uint256",
              "name": "tokenId",
              "type": "uint256"
            },
            {
              "internalType": "address payable",
              "name": "seller",
              "type": "address"
            },
            {
              "internalType": "address payable",
              "name": "owner",
              "type": "address"
            },
            {
              "internalType": "uint256",
              "name": "price",
              "type": "uint256"
            },
            {
              "internalType": "bool",
              "name": "sold",
              "type": "bool"
            }
          ],
          "internalType": "struct NFTMarket.MarketItem[]",
          "name": "",
          "type": "tuple[]"
        }
      ],
      "stateMutability": "view",
      "type": "function"
    },
    {
      "inputs": [],
      "name": "getListingPrice",
      "outputs": [
        {
          "internalType": "uint256",
          "name": "",
          "type": "uint256"
        }
      ],
      "stateMutability": "view",
      "type": "function"
    }
  ],
  "bytecode": "0x60806040526658d15e1762800060045534801561001b57600080fd5b50600160008190555033600360006101000a81548173ffffffffffffffffffffffffffffffffffffffff021916908373ffffffffffffffffffffffffffffffffffffffff160217905550611bc7806100746000396000f3fe6080604052600436106100705760003560e01c806378f04baf1161004e57806378f04baf146100e7578063c23b139e14610112578063deb1250d1461012e578063e2bc26b21461016b57610070565b806312e855851461007557806318474cea146100a05780636369417a146100cb575b600080fd5b34801561008157600080fd5b5061008a610196565b60405161009791906118b2565b60405180910390f35b3480156100ac57600080fd5b506100b56101a0565b6040516100c291906117f5565b60405180910390f35b6100e560048036038101906100e0919061147a565b61053a565b005b3480156100f357600080fd5b506100fc61089e565b60405161010991906117f5565b60405180910390f35b61012c6004803603810190610127919061143e565b610bb4565b005b34801561013a57600080fd5b50610155600480360381019061015091906114c9565b610e6d565b6040516101629190611897565b60405180910390f35b34801561017757600080fd5b50610180610fd5565b60405161018d91906117f5565b60405180910390f35b6000600454905090565b606060006101ae600161136f565b905060008060005b83811015610257573373ffffffffffffffffffffffffffffffffffffffff16600560006001846101e69190611917565b815260200190815260200160002060030160009054906101000a900473ffffffffffffffffffffffffffffffffffffffff1673ffffffffffffffffffffffffffffffffffffffff161415610244576001836102419190611917565b92505b808061024f906119fb565b9150506101b6565b5060008267ffffffffffffffff81111561029a577f4e487b7100000000000000000000000000000000000000000000000000000000600052604160045260246000fd5b6040519080825280602002602001820160405280156102d357816020015b6102c0611393565b8152602001906001900390816102b85790505b50905060005b8481101561052f573373ffffffffffffffffffffffffffffffffffffffff16600560006001846103099190611917565b815260200190815260200160002060030160009054906101000a900473ffffffffffffffffffffffffffffffffffffffff1673ffffffffffffffffffffffffffffffffffffffff16141561051c5760006001826103669190611917565b90506000600560008381526020019081526020016000209050806040518060e0016040529081600082015481526020016001820160009054906101000a900473ffffffffffffffffffffffffffffffffffffffff1673ffffffffffffffffffffffffffffffffffffffff1673ffffffffffffffffffffffffffffffffffffffff168152602001600282015481526020016003820160009054906101000a900473ffffffffffffffffffffffffffffffffffffffff1673ffffffffffffffffffffffffffffffffffffffff1673ffffffffffffffffffffffffffffffffffffffff1681526020016004820160009054906101000a900473ffffffffffffffffffffffffffffffffffffffff1673ffffffffffffffffffffffffffffffffffffffff1673ffffffffffffffffffffffffffffffffffffffff168152602001600582015481526020016006820160009054906101000a900460ff1615151515815250508486815181106104ff577f4e487b7100000000000000000000000000000000000000000000000000000000600052603260045260246000fd5b60200260200101819052506001856105179190611917565b945050505b8080610527906119fb565b9150506102d9565b508094505050505090565b60026000541415610580576040517f08c379a000000000000000000000000000000000000000000000000000000000815260040161057790611857565b60405180910390fd5b6002600081905550600081116105cb576040517f08c379a00000000000000000000000000000000000000000000000000000000081526004016105c290611877565b60405180910390fd5b600454341461060f576040517f08c379a000000000000000000000000000000000000000000000000000000000815260040161060690611837565b60405180910390fd5b610619600161137d565b6000610625600161136f565b90506040518060e001604052808281526020018573ffffffffffffffffffffffffffffffffffffffff1681526020018481526020013373ffffffffffffffffffffffffffffffffffffffff168152602001600073ffffffffffffffffffffffffffffffffffffffff16815260200183815260200160001515815250600560008381526020019081526020016000206000820151816000015560208201518160010160006101000a81548173ffffffffffffffffffffffffffffffffffffffff021916908373ffffffffffffffffffffffffffffffffffffffff1602179055506040820151816002015560608201518160030160006101000a81548173ffffffffffffffffffffffffffffffffffffffff021916908373ffffffffffffffffffffffffffffffffffffffff16021790555060808201518160040160006101000a81548173ffffffffffffffffffffffffffffffffffffffff021916908373ffffffffffffffffffffffffffffffffffffffff16021790555060a0820151816005015560c08201518160060160006101000a81548160ff0219169083151502179055509050508373ffffffffffffffffffffffffffffffffffffffff166323b872dd3330866040518463ffffffff1660e01b815260040161080693929190611779565b600060405180830381600087803b15801561082057600080fd5b505af1158015610834573d6000803e3d6000fd5b50505050828473ffffffffffffffffffffffffffffffffffffffff16827f045dfa01dcba2b36aba1d3dc4a874f4b0c5d2fbeb8d2c4b34a7d88c8d8f929d133600087600060405161088894939291906117b0565b60405180910390a4506001600081905550505050565b606060006108ac600161136f565b905060006108ba600261136f565b6108c4600161136f565b6108ce919061196d565b90506000808267ffffffffffffffff811115610913577f4e487b7100000000000000000000000000000000000000000000000000000000600052604160045260246000fd5b60405190808252806020026020018201604052801561094c57816020015b610939611393565b8152602001906001900390816109315790505b50905060005b84811015610ba957600073ffffffffffffffffffffffffffffffffffffffff16600560006001846109839190611917565b815260200190815260200160002060040160009054906101000a900473ffffffffffffffffffffffffffffffffffffffff1673ffffffffffffffffffffffffffffffffffffffff161415610b965760006001826109e09190611917565b90506000600560008381526020019081526020016000209050806040518060e0016040529081600082015481526020016001820160009054906101000a900473ffffffffffffffffffffffffffffffffffffffff1673ffffffffffffffffffffffffffffffffffffffff1673ffffffffffffffffffffffffffffffffffffffff168152602001600282015481526020016003820160009054906101000a900473ffffffffffffffffffffffffffffffffffffffff1673ffffffffffffffffffffffffffffffffffffffff1673ffffffffffffffffffffffffffffffffffffffff1681526020016004820160009054906101000a900473ffffffffffffffffffffffffffffffffffffffff1673ffffffffffffffffffffffffffffffffffffffff1673ffffffffffffffffffffffffffffffffffffffff168152602001600582015481526020016006820160009054906101000a900460ff161515151581525050848681518110610b79577f4e487b7100000000000000000000000000000000000000000000000000000000600052603260045260246000fd5b6020026020010181905250600185610b919190611917565b945050505b8080610ba1906119fb565b915050610952565b508094505050505090565b60026000541415610bfa576040517f08c379a0000000000000000000000000000000000000000000000000000000008152600401610bf190611857565b60405180910390fd5b6002600081905550600060056000838152602001908152602001600020600501549050600060056000848152602001908152602001600020600201549050813414610c7a576040517f08c379a0000000000000000000000000000000000000000000000000000000008152600401610c7190611817565b60405180910390fd5b6005600084815260200190815260200160002060030160009054906101000a900473ffffffffffffffffffffffffffffffffffffffff1673ffffffffffffffffffffffffffffffffffffffff166108fc349081150290604051600060405180830381858888f19350505050158015610cf6573d6000803e3d6000fd5b508373ffffffffffffffffffffffffffffffffffffffff166323b872dd3033846040518463ffffffff1660e01b8152600401610d3493929190611779565b600060405180830381600087803b158015610d4e57600080fd5b505af1158015610d62573d6000803e3d6000fd5b50505050336005600085815260200190815260200160002060040160006101000a81548173ffffffffffffffffffffffffffffffffffffffff021916908373ffffffffffffffffffffffffffffffffffffffff16021790555060016005600085815260200190815260200160002060060160006101000a81548160ff021916908315150217905550610df4600261137d565b600360009054906101000a900473ffffffffffffffffffffffffffffffffffffffff1673ffffffffffffffffffffffffffffffffffffffff166108fc6004549081150290604051600060405180830381858888f19350505050158015610e5e573d6000803e3d6000fd5b50505060016000819055505050565b610e75611393565b600560008381526020019081526020016000206040518060e0016040529081600082015481526020016001820160009054906101000a900473ffffffffffffffffffffffffffffffffffffffff1673ffffffffffffffffffffffffffffffffffffffff1673ffffffffffffffffffffffffffffffffffffffff168152602001600282015481526020016003820160009054906101000a900473ffffffffffffffffffffffffffffffffffffffff1673ffffffffffffffffffffffffffffffffffffffff1673ffffffffffffffffffffffffffffffffffffffff1681526020016004820160009054906101000a900473ffffffffffffffffffffffffffffffffffffffff1673ffffffffffffffffffffffffffffffffffffffff1673ffffffffffffffffffffffffffffffffffffffff168152602001600582015481526020016006820160009054906101000a900460ff1615151515815250509050919050565b60606000610fe3600161136f565b905060008060005b8381101561108c573373ffffffffffffffffffffffffffffffffffffffff166005600060018461101b9190611917565b815260200190815260200160002060040160009054906101000a900473ffffffffffffffffffffffffffffffffffffffff1673ffffffffffffffffffffffffffffffffffffffff161415611079576001836110769190611917565b92505b8080611084906119fb565b915050610feb565b5060008267ffffffffffffffff8111156110cf577f4e487b7100000000000000000000000000000000000000000000000000000000600052604160045260246000fd5b60405190808252806020026020018201604052801561110857816020015b6110f5611393565b8152602001906001900390816110ed5790505b50905060005b84811015611364573373ffffffffffffffffffffffffffffffffffffffff166005600060018461113e9190611917565b815260200190815260200160002060040160009054906101000a900473ffffffffffffffffffffffffffffffffffffffff1673ffffffffffffffffffffffffffffffffffffffff16141561135157600060018261119b9190611917565b90506000600560008381526020019081526020016000209050806040518060e0016040529081600082015481526020016001820160009054906101000a900473ffffffffffffffffffffffffffffffffffffffff1673ffffffffffffffffffffffffffffffffffffffff1673ffffffffffffffffffffffffffffffffffffffff168152602001600282015481526020016003820160009054906101000a900473ffffffffffffffffffffffffffffffffffffffff1673ffffffffffffffffffffffffffffffffffffffff1673ffffffffffffffffffffffffffffffffffffffff1681526020016004820160009054906101000a900473ffffffffffffffffffffffffffffffffffffffff1673ffffffffffffffffffffffffffffffffffffffff1673ffffffffffffffffffffffffffffffffffffffff168152602001600582015481526020016006820160009054906101000a900460ff161515151581525050848681518110611334577f4e487b7100000000000000000000000000000000000000000000000000000000600052603260045260246000fd5b602002602001018190525060018561134c9190611917565b945050505b808061135c906119fb565b91505061110e565b508094505050505090565b600081600001549050919050565b6001816000016000828254019250508190555050565b6040518060e0016040528060008152602001600073ffffffffffffffffffffffffffffffffffffffff16815260200160008152602001600073ffffffffffffffffffffffffffffffffffffffff168152602001600073ffffffffffffffffffffffffffffffffffffffff168152602001600081526020016000151581525090565b60008135905061142381611b63565b92915050565b60008135905061143881611b7a565b92915050565b6000806040838503121561145157600080fd5b600061145f85828601611414565b925050602061147085828601611429565b9150509250929050565b60008060006060848603121561148f57600080fd5b600061149d86828701611414565b93505060206114ae86828701611429565b92505060406114bf86828701611429565b9150509250925092565b6000602082840312156114db57600080fd5b60006114e984828501611429565b91505092915050565b60006114fe838361163f565b60e08301905092915050565b611513816119b3565b82525050565b611522816119a1565b82525050565b611531816119a1565b82525050565b6000611542826118dd565b61154c81856118f5565b9350611557836118cd565b8060005b8381101561158857815161156f88826114f2565b975061157a836118e8565b92505060018101905061155b565b5085935050505092915050565b61159e816119c5565b82525050565b6115ad816119c5565b82525050565b60006115c0604083611906565b91506115cb82611a73565b604082019050919050565b60006115e3602483611906565b91506115ee82611ac2565b604082019050919050565b6000611606601f83611906565b915061161182611b11565b602082019050919050565b6000611629601c83611906565b915061163482611b3a565b602082019050919050565b60e082016000820151611655600085018261175b565b5060208201516116686020850182611519565b50604082015161167b604085018261175b565b50606082015161168e606085018261150a565b5060808201516116a1608085018261150a565b5060a08201516116b460a085018261175b565b5060c08201516116c760c0850182611595565b50505050565b60e0820160008201516116e3600085018261175b565b5060208201516116f66020850182611519565b506040820151611709604085018261175b565b50606082015161171c606085018261150a565b50608082015161172f608085018261150a565b5060a082015161174260a085018261175b565b5060c082015161175560c0850182611595565b50505050565b611764816119f1565b82525050565b611773816119f1565b82525050565b600060608201905061178e6000830186611528565b61179b6020830185611528565b6117a8604083018461176a565b949350505050565b60006080820190506117c56000830187611528565b6117d26020830186611528565b6117df604083018561176a565b6117ec60608301846115a4565b95945050505050565b6000602082019050818103600083015261180f8184611537565b905092915050565b60006020820190508181036000830152611830816115b3565b9050919050565b60006020820190508181036000830152611850816115d6565b9050919050565b60006020820190508181036000830152611870816115f9565b9050919050565b600060208201905081810360008301526118908161161c565b9050919050565b600060e0820190506118ac60008301846116cd565b92915050565b60006020820190506118c7600083018461176a565b92915050565b6000819050602082019050919050565b600081519050919050565b6000602082019050919050565b600082825260208201905092915050565b600082825260208201905092915050565b6000611922826119f1565b915061192d836119f1565b9250827fffffffffffffffffffffffffffffffffffffffffffffffffffffffffffffffff0382111561196257611961611a44565b5b828201905092915050565b6000611978826119f1565b9150611983836119f1565b92508282101561199657611995611a44565b5b828203905092915050565b60006119ac826119d1565b9050919050565b60006119be826119d1565b9050919050565b60008115159050919050565b600073ffffffffffffffffffffffffffffffffffffffff82169050919050565b6000819050919050565b6000611a06826119f1565b91507fffffffffffffffffffffffffffffffffffffffffffffffffffffffffffffffff821415611a3957611a38611a44565b5b600182019050919050565b7f4e487b7100000000000000000000000000000000000000000000000000000000600052601160045260246000fd5b7f506c65617365207375626d6974207468652061736b696e67207072696365206960008201527f6e206f7264657220746f20636f6d706c65746520746865207075726368617365602082015250565b7f5072696365206d75737420626520657175616c20746f206c697374696e67207060008201527f7269636500000000000000000000000000000000000000000000000000000000602082015250565b7f5265656e7472616e637947756172643a207265656e7472616e742063616c6c00600082015250565b7f5072696365206d757374206265206174206c6561737420312077656900000000600082015250565b611b6c816119a1565b8114611b7757600080fd5b50565b611b83816119f1565b8114611b8e57600080fd5b5056fea2646970667358221220563739f59a66be4ac24b480dbb80dca74f1d8d7330b3301bfd8f5777d84162b264736f6c63430008040033",
  "linkReferences": {},
  "deployedLinkReferences": {}
}